{
  "contractName": "GakaToken",
  "abi": [
    {
      "inputs": [
        {
          "internalType": "string",
          "name": "_baseURI",
          "type": "string"
        }
      ],
      "stateMutability": "nonpayable",
      "type": "constructor"
    },
    {
      "anonymous": false,
      "inputs": [
        {
          "indexed": true,
          "internalType": "address",
          "name": "owner",
          "type": "address"
        },
        {
          "indexed": true,
          "internalType": "address",
          "name": "approved",
          "type": "address"
        },
        {
          "indexed": true,
          "internalType": "uint256",
          "name": "tokenId",
          "type": "uint256"
        }
      ],
      "name": "Approval",
      "type": "event"
    },
    {
      "anonymous": false,
      "inputs": [
        {
          "indexed": true,
          "internalType": "address",
          "name": "owner",
          "type": "address"
        },
        {
          "indexed": true,
          "internalType": "address",
          "name": "operator",
          "type": "address"
        },
        {
          "indexed": false,
          "internalType": "bool",
          "name": "approved",
          "type": "bool"
        }
      ],
      "name": "ApprovalForAll",
      "type": "event"
    },
    {
      "anonymous": false,
      "inputs": [
        {
          "indexed": true,
          "internalType": "bytes32",
          "name": "role",
          "type": "bytes32"
        },
        {
          "indexed": true,
          "internalType": "bytes32",
          "name": "previousAdminRole",
          "type": "bytes32"
        },
        {
          "indexed": true,
          "internalType": "bytes32",
          "name": "newAdminRole",
          "type": "bytes32"
        }
      ],
      "name": "RoleAdminChanged",
      "type": "event"
    },
    {
      "anonymous": false,
      "inputs": [
        {
          "indexed": true,
          "internalType": "bytes32",
          "name": "role",
          "type": "bytes32"
        },
        {
          "indexed": true,
          "internalType": "address",
          "name": "account",
          "type": "address"
        },
        {
          "indexed": true,
          "internalType": "address",
          "name": "sender",
          "type": "address"
        }
      ],
      "name": "RoleGranted",
      "type": "event"
    },
    {
      "anonymous": false,
      "inputs": [
        {
          "indexed": true,
          "internalType": "bytes32",
          "name": "role",
          "type": "bytes32"
        },
        {
          "indexed": true,
          "internalType": "address",
          "name": "account",
          "type": "address"
        },
        {
          "indexed": true,
          "internalType": "address",
          "name": "sender",
          "type": "address"
        }
      ],
      "name": "RoleRevoked",
      "type": "event"
    },
    {
      "anonymous": false,
      "inputs": [
        {
          "indexed": true,
          "internalType": "address",
          "name": "from",
          "type": "address"
        },
        {
          "indexed": true,
          "internalType": "address",
          "name": "to",
          "type": "address"
        },
        {
          "indexed": true,
          "internalType": "uint256",
          "name": "tokenId",
          "type": "uint256"
        }
      ],
      "name": "Transfer",
      "type": "event"
    },
    {
      "inputs": [],
      "name": "DEFAULT_ADMIN_ROLE",
      "outputs": [
        {
          "internalType": "bytes32",
          "name": "",
          "type": "bytes32"
        }
      ],
      "stateMutability": "view",
      "type": "function",
      "constant": true
    },
    {
      "inputs": [],
      "name": "MINTER_ROLE",
      "outputs": [
        {
          "internalType": "bytes32",
          "name": "",
          "type": "bytes32"
        }
      ],
      "stateMutability": "view",
      "type": "function",
      "constant": true
    },
    {
      "inputs": [
        {
          "internalType": "address",
          "name": "to",
          "type": "address"
        },
        {
          "internalType": "uint256",
          "name": "tokenId",
          "type": "uint256"
        }
      ],
      "name": "approve",
      "outputs": [],
      "stateMutability": "nonpayable",
      "type": "function"
    },
    {
      "inputs": [
        {
          "internalType": "address",
          "name": "owner",
          "type": "address"
        }
      ],
      "name": "balanceOf",
      "outputs": [
        {
          "internalType": "uint256",
          "name": "",
          "type": "uint256"
        }
      ],
      "stateMutability": "view",
      "type": "function",
      "constant": true
    },
    {
      "inputs": [],
      "name": "baseURI",
      "outputs": [
        {
          "internalType": "string",
          "name": "",
          "type": "string"
        }
      ],
      "stateMutability": "view",
      "type": "function",
      "constant": true
    },
    {
      "inputs": [
        {
          "internalType": "uint256",
          "name": "tokenId",
          "type": "uint256"
        }
      ],
      "name": "getApproved",
      "outputs": [
        {
          "internalType": "address",
          "name": "",
          "type": "address"
        }
      ],
      "stateMutability": "view",
      "type": "function",
      "constant": true
    },
    {
      "inputs": [
        {
          "internalType": "bytes32",
          "name": "role",
          "type": "bytes32"
        }
      ],
      "name": "getRoleAdmin",
      "outputs": [
        {
          "internalType": "bytes32",
          "name": "",
          "type": "bytes32"
        }
      ],
      "stateMutability": "view",
      "type": "function",
      "constant": true
    },
    {
      "inputs": [
        {
          "internalType": "bytes32",
          "name": "role",
          "type": "bytes32"
        },
        {
          "internalType": "uint256",
          "name": "index",
          "type": "uint256"
        }
      ],
      "name": "getRoleMember",
      "outputs": [
        {
          "internalType": "address",
          "name": "",
          "type": "address"
        }
      ],
      "stateMutability": "view",
      "type": "function",
      "constant": true
    },
    {
      "inputs": [
        {
          "internalType": "bytes32",
          "name": "role",
          "type": "bytes32"
        }
      ],
      "name": "getRoleMemberCount",
      "outputs": [
        {
          "internalType": "uint256",
          "name": "",
          "type": "uint256"
        }
      ],
      "stateMutability": "view",
      "type": "function",
      "constant": true
    },
    {
      "inputs": [
        {
          "internalType": "bytes32",
          "name": "role",
          "type": "bytes32"
        },
        {
          "internalType": "address",
          "name": "account",
          "type": "address"
        }
      ],
      "name": "grantRole",
      "outputs": [],
      "stateMutability": "nonpayable",
      "type": "function"
    },
    {
      "inputs": [
        {
          "internalType": "bytes32",
          "name": "role",
          "type": "bytes32"
        },
        {
          "internalType": "address",
          "name": "account",
          "type": "address"
        }
      ],
      "name": "hasRole",
      "outputs": [
        {
          "internalType": "bool",
          "name": "",
          "type": "bool"
        }
      ],
      "stateMutability": "view",
      "type": "function",
      "constant": true
    },
    {
      "inputs": [
        {
          "internalType": "address",
          "name": "owner",
          "type": "address"
        },
        {
          "internalType": "address",
          "name": "operator",
          "type": "address"
        }
      ],
      "name": "isApprovedForAll",
      "outputs": [
        {
          "internalType": "bool",
          "name": "",
          "type": "bool"
        }
      ],
      "stateMutability": "view",
      "type": "function",
      "constant": true
    },
    {
      "inputs": [],
      "name": "name",
      "outputs": [
        {
          "internalType": "string",
          "name": "",
          "type": "string"
        }
      ],
      "stateMutability": "view",
      "type": "function",
      "constant": true
    },
    {
      "inputs": [
        {
          "internalType": "uint256",
          "name": "tokenId",
          "type": "uint256"
        }
      ],
      "name": "ownerOf",
      "outputs": [
        {
          "internalType": "address",
          "name": "",
          "type": "address"
        }
      ],
      "stateMutability": "view",
      "type": "function",
      "constant": true
    },
    {
      "inputs": [
        {
          "internalType": "bytes32",
          "name": "role",
          "type": "bytes32"
        },
        {
          "internalType": "address",
          "name": "account",
          "type": "address"
        }
      ],
      "name": "renounceRole",
      "outputs": [],
      "stateMutability": "nonpayable",
      "type": "function"
    },
    {
      "inputs": [
        {
          "internalType": "bytes32",
          "name": "role",
          "type": "bytes32"
        },
        {
          "internalType": "address",
          "name": "account",
          "type": "address"
        }
      ],
      "name": "revokeRole",
      "outputs": [],
      "stateMutability": "nonpayable",
      "type": "function"
    },
    {
      "inputs": [
        {
          "internalType": "address",
          "name": "from",
          "type": "address"
        },
        {
          "internalType": "address",
          "name": "to",
          "type": "address"
        },
        {
          "internalType": "uint256",
          "name": "tokenId",
          "type": "uint256"
        }
      ],
      "name": "safeTransferFrom",
      "outputs": [],
      "stateMutability": "nonpayable",
      "type": "function"
    },
    {
      "inputs": [
        {
          "internalType": "address",
          "name": "from",
          "type": "address"
        },
        {
          "internalType": "address",
          "name": "to",
          "type": "address"
        },
        {
          "internalType": "uint256",
          "name": "tokenId",
          "type": "uint256"
        },
        {
          "internalType": "bytes",
          "name": "_data",
          "type": "bytes"
        }
      ],
      "name": "safeTransferFrom",
      "outputs": [],
      "stateMutability": "nonpayable",
      "type": "function"
    },
    {
      "inputs": [
        {
          "internalType": "address",
          "name": "operator",
          "type": "address"
        },
        {
          "internalType": "bool",
          "name": "approved",
          "type": "bool"
        }
      ],
      "name": "setApprovalForAll",
      "outputs": [],
      "stateMutability": "nonpayable",
      "type": "function"
    },
    {
      "inputs": [
        {
          "internalType": "bytes4",
          "name": "interfaceId",
          "type": "bytes4"
        }
      ],
      "name": "supportsInterface",
      "outputs": [
        {
          "internalType": "bool",
          "name": "",
          "type": "bool"
        }
      ],
      "stateMutability": "view",
      "type": "function",
      "constant": true
    },
    {
      "inputs": [],
      "name": "symbol",
      "outputs": [
        {
          "internalType": "string",
          "name": "",
          "type": "string"
        }
      ],
      "stateMutability": "view",
      "type": "function",
      "constant": true
    },
    {
      "inputs": [
        {
          "internalType": "uint256",
          "name": "index",
          "type": "uint256"
        }
      ],
      "name": "tokenByIndex",
      "outputs": [
        {
          "internalType": "uint256",
          "name": "",
          "type": "uint256"
        }
      ],
      "stateMutability": "view",
      "type": "function",
      "constant": true
    },
    {
      "inputs": [
        {
          "internalType": "address",
          "name": "owner",
          "type": "address"
        },
        {
          "internalType": "uint256",
          "name": "index",
          "type": "uint256"
        }
      ],
      "name": "tokenOfOwnerByIndex",
      "outputs": [
        {
          "internalType": "uint256",
          "name": "",
          "type": "uint256"
        }
      ],
      "stateMutability": "view",
      "type": "function",
      "constant": true
    },
    {
      "inputs": [
        {
          "internalType": "uint256",
          "name": "tokenId",
          "type": "uint256"
        }
      ],
      "name": "tokenURI",
      "outputs": [
        {
          "internalType": "string",
          "name": "",
          "type": "string"
        }
      ],
      "stateMutability": "view",
      "type": "function",
      "constant": true
    },
    {
      "inputs": [],
      "name": "totalSupply",
      "outputs": [
        {
          "internalType": "uint256",
          "name": "",
          "type": "uint256"
        }
      ],
      "stateMutability": "view",
      "type": "function",
      "constant": true
    },
    {
      "inputs": [
        {
          "internalType": "address",
          "name": "from",
          "type": "address"
        },
        {
          "internalType": "address",
          "name": "to",
          "type": "address"
        },
        {
          "internalType": "uint256",
          "name": "tokenId",
          "type": "uint256"
        }
      ],
      "name": "transferFrom",
      "outputs": [],
      "stateMutability": "nonpayable",
      "type": "function"
    },
    {
      "inputs": [
        {
          "internalType": "address",
          "name": "to",
          "type": "address"
        }
      ],
      "name": "mint",
      "outputs": [],
      "stateMutability": "nonpayable",
      "type": "function"
    },
    {
      "inputs": [
        {
          "internalType": "address",
          "name": "to",
          "type": "address"
        },
        {
          "internalType": "string",
          "name": "_tokenURI",
          "type": "string"
        }
      ],
      "name": "mintWithURI",
      "outputs": [],
      "stateMutability": "nonpayable",
      "type": "function"
    },
    {
      "inputs": [
        {
          "internalType": "uint256",
          "name": "tokenId",
          "type": "uint256"
        },
        {
          "internalType": "string",
          "name": "_tokenURI",
          "type": "string"
        }
      ],
      "name": "setTokenURI",
      "outputs": [],
      "stateMutability": "nonpayable",
      "type": "function"
    }
  ],
  "bytecode": "0x60806040523480156200001157600080fd5b506040516200285638038062002856833981810160405260208110156200003757600080fd5b81019080805160405193929190846401000000008211156200005857600080fd5b9083019060208201858111156200006e57600080fd5b82516401000000008111828201881017156200008957600080fd5b82525081516020918201929091019080838360005b83811015620000b85781810151838201526020016200009e565b50505050905090810190601f168015620000e65780820380516001836020036101000a031916815260200191505b5060408181018152600c82526b47616b6144726177696e677360a01b6020808401919091528151808301909252600382526211d0d160ea1b9082015290935091506200013b90506301ffc9a760e01b620001f7565b815162000150906006906020850190620003a7565b50805162000166906007906020840190620003a7565b50620001796380ac58cd60e01b620001f7565b6200018b635b5e139f60e01b620001f7565b6200019d63780e9d6360e01b620001f7565b50620001b690506000620001b06200027c565b62000280565b620001e57f9f2df0fed2c77648de5860a4cc508cd0818c85b8b8a1ab4ceeef8d981c8956a6620001b06200027c565b620001f08162000290565b5062000453565b6001600160e01b0319808216141562000257576040805162461bcd60e51b815260206004820152601c60248201527f4552433136353a20696e76616c696420696e7465726661636520696400000000604482015290519081900360640190fd5b6001600160e01b0319166000908152602081905260409020805460ff19166001179055565b3390565b6200028c8282620002a5565b5050565b80516200028c906009906020840190620003a7565b6000828152600a60209081526040909120620002cc918390620012e662000320821b17901c565b156200028c57620002dc6200027c565b6001600160a01b0316816001600160a01b0316837f2f8788117e7eff1d82e926ec794901d17c78024a50270940304540a733656f0d60405160405180910390a45050565b600062000337836001600160a01b03841662000340565b90505b92915050565b60006200034e83836200038f565b62000386575081546001818101845560008481526020808220909301849055845484825282860190935260409020919091556200033a565b5060006200033a565b60009081526001919091016020526040902054151590565b828054600181600116156101000203166002900490600052602060002090601f016020900481019282620003df57600085556200042a565b82601f10620003fa57805160ff19168380011785556200042a565b828001600101855582156200042a579182015b828111156200042a5782518255916020019190600101906200040d565b50620004389291506200043c565b5090565b5b808211156200043857600081556001016200043d565b6123f380620004636000396000f3fe608060405234801561001057600080fd5b50600436106101cf5760003560e01c80636352211e11610104578063a217fddf116100a2578063ca15c87311610071578063ca15c8731461077b578063d539139314610798578063d547741f146107a0578063e985e9c5146107cc576101cf565b8063a217fddf14610662578063a22cb4651461066a578063b88d4fde14610698578063c87b56dd1461075e576101cf565b806370a08231116100de57806370a08231146105e55780639010d07c1461060b57806391d148541461062e57806395d89b411461065a576101cf565b80636352211e1461059a5780636a627842146105b75780636c0360eb146105dd576101cf565b806323b872dd116101715780632f745c591161014b5780632f745c59146104ef57806336568abe1461051b57806342842e0e146105475780634f6ccce71461057d576101cf565b806323b872dd14610470578063248a9ca3146104a65780632f2ff15d146104c3576101cf565b8063095ea7b3116101ad578063095ea7b3146102c55780630e980602146102f3578063162094c4146103a957806318160ddd14610456576101cf565b806301ffc9a7146101d457806306fdde031461020f578063081812fc1461028c575b600080fd5b6101fb600480360360208110156101ea57600080fd5b50356001600160e01b0319166107fa565b604080519115158252519081900360200190f35b61021761081d565b6040805160208082528351818301528351919283929083019185019080838360005b83811015610251578181015183820152602001610239565b50505050905090810190601f16801561027e5780820380516001836020036101000a031916815260200191505b509250505060405180910390f35b6102a9600480360360208110156102a257600080fd5b50356108b3565b604080516001600160a01b039092168252519081900360200190f35b6102f1600480360360408110156102db57600080fd5b506001600160a01b038135169060200135610915565b005b6102f16004803603604081101561030957600080fd5b6001600160a01b03823516919081019060408101602082013564010000000081111561033457600080fd5b82018360208201111561034657600080fd5b8035906020019184600183028401116401000000008311171561036857600080fd5b91908080601f0160208091040260200160405190810160405280939291908181526020018383808284376000920191909152509295506109f0945050505050565b6102f1600480360360408110156103bf57600080fd5b813591908101906040810160208201356401000000008111156103e157600080fd5b8201836020820111156103f357600080fd5b8035906020019184600183028401116401000000008311171561041557600080fd5b91908080601f016020809104026020016040519081016040528093929190818152602001838380828437600092019190915250929550610a90945050505050565b61045e610a9a565b60408051918252519081900360200190f35b6102f16004803603606081101561048657600080fd5b506001600160a01b03813581169160208101359091169060400135610aab565b61045e600480360360208110156104bc57600080fd5b5035610b02565b6102f1600480360360408110156104d957600080fd5b50803590602001356001600160a01b0316610b17565b61045e6004803603604081101561050557600080fd5b506001600160a01b038135169060200135610b7a565b6102f16004803603604081101561053157600080fd5b50803590602001356001600160a01b0316610ba5565b6102f16004803603606081101561055d57600080fd5b506001600160a01b03813581169160208101359091169060400135610c06565b61045e6004803603602081101561059357600080fd5b5035610c21565b6102a9600480360360208110156105b057600080fd5b5035610c37565b6102f1600480360360208110156105cd57600080fd5b50356001600160a01b0316610c5f565b610217610ce1565b61045e600480360360208110156105fb57600080fd5b50356001600160a01b0316610d42565b6102a96004803603604081101561062157600080fd5b5080359060200135610daa565b6101fb6004803603604081101561064457600080fd5b50803590602001356001600160a01b0316610dc2565b610217610dda565b61045e610e3b565b6102f16004803603604081101561068057600080fd5b506001600160a01b0381351690602001351515610e40565b6102f1600480360360808110156106ae57600080fd5b6001600160a01b038235811692602081013590911691604082013591908101906080810160608201356401000000008111156106e957600080fd5b8201836020820111156106fb57600080fd5b8035906020019184600183028401116401000000008311171561071d57600080fd5b91908080601f016020809104026020016040519081016040528093929190818152602001838380828437600092019190915250929550610f45945050505050565b6102176004803603602081101561077457600080fd5b5035610fa3565b61045e6004803603602081101561079157600080fd5b5035611224565b61045e61123b565b6102f1600480360360408110156107b657600080fd5b50803590602001356001600160a01b031661125f565b6101fb600480360360408110156107e257600080fd5b506001600160a01b03813581169160200135166112b8565b6001600160e01b0319811660009081526020819052604090205460ff165b919050565b60068054604080516020601f60026000196101006001881615020190951694909404938401819004810282018101909252828152606093909290918301828280156108a95780601f1061087e576101008083540402835291602001916108a9565b820191906000526020600020905b81548152906001019060200180831161088c57829003601f168201915b5050505050905090565b60006108be826112fb565b6108f95760405162461bcd60e51b815260040180806020018281038252602c815260200180612268602c913960400191505060405180910390fd5b506000908152600460205260409020546001600160a01b031690565b600061092082610c37565b9050806001600160a01b0316836001600160a01b031614156109735760405162461bcd60e51b81526004018080602001828103825260218152602001806123186021913960400191505060405180910390fd5b806001600160a01b0316610985611308565b6001600160a01b031614806109a657506109a6816109a1611308565b6112b8565b6109e15760405162461bcd60e51b81526004018080602001828103825260388152602001806121bb6038913960400191505060405180910390fd5b6109eb838361130c565b505050565b610a217f9f2df0fed2c77648de5860a4cc508cd0818c85b8b8a1ab4ceeef8d981c8956a6610a1c611308565b610dc2565b610a5c5760405162461bcd60e51b815260040180806020018281038252602581526020018061236a6025913960400191505060405180910390fd5b610a6f82610a6a600b61137a565b61137e565b610a82610a7c600b61137a565b826114ac565b610a8c600b61150f565b5050565b610a8c82826114ac565b6000610aa66002611518565b905090565b610abc610ab6611308565b82611523565b610af75760405162461bcd60e51b81526004018080602001828103825260318152602001806123396031913960400191505060405180910390fd5b6109eb8383836115c7565b6000908152600a602052604090206002015490565b6000828152600a6020526040902060020154610b3590610a1c611308565b610b705760405162461bcd60e51b815260040180806020018281038252602f8152602001806120da602f913960400191505060405180910390fd5b610a8c8282611713565b6001600160a01b0382166000908152600160205260408120610b9c908361177c565b90505b92915050565b610bad611308565b6001600160a01b0316816001600160a01b031614610bfc5760405162461bcd60e51b815260040180806020018281038252602f81526020018061238f602f913960400191505060405180910390fd5b610a8c8282611788565b6109eb83838360405180602001604052806000815250610f45565b600080610c2f6002846117f1565b509392505050565b6000610b9f8260405180606001604052806029815260200161221d602991396002919061180d565b610c8b7f9f2df0fed2c77648de5860a4cc508cd0818c85b8b8a1ab4ceeef8d981c8956a6610a1c611308565b610cc65760405162461bcd60e51b815260040180806020018281038252602581526020018061236a6025913960400191505060405180910390fd5b610cd481610a6a600b61137a565b610cde600b61150f565b50565b60098054604080516020601f60026000196101006001881615020190951694909404938401819004810282018101909252828152606093909290918301828280156108a95780601f1061087e576101008083540402835291602001916108a9565b60006001600160a01b038216610d895760405162461bcd60e51b815260040180806020018281038252602a8152602001806121f3602a913960400191505060405180910390fd5b6001600160a01b0382166000908152600160205260409020610b9f90611518565b6000828152600a60205260408120610b9c908361177c565b6000828152600a60205260408120610b9c9083611824565b60078054604080516020601f60026000196101006001881615020190951694909404938401819004810282018101909252828152606093909290918301828280156108a95780601f1061087e576101008083540402835291602001916108a9565b600081565b610e48611308565b6001600160a01b0316826001600160a01b03161415610eae576040805162461bcd60e51b815260206004820152601960248201527f4552433732313a20617070726f766520746f2063616c6c657200000000000000604482015290519081900360640190fd5b8060056000610ebb611308565b6001600160a01b03908116825260208083019390935260409182016000908120918716808252919093529120805460ff191692151592909217909155610eff611308565b6001600160a01b03167f17307eab39ab6107e8899845ad3d59bd9653f200f220920489ca2b5937696c318360405180821515815260200191505060405180910390a35050565b610f56610f50611308565b83611523565b610f915760405162461bcd60e51b81526004018080602001828103825260318152602001806123396031913960400191505060405180910390fd5b610f9d84848484611839565b50505050565b6060610fae826112fb565b610fe95760405162461bcd60e51b815260040180806020018281038252602f8152602001806122e9602f913960400191505060405180910390fd5b60008281526008602090815260408083208054825160026001831615610100026000190190921691909104601f81018590048502820185019093528281529290919083018282801561107c5780601f106110515761010080835404028352916020019161107c565b820191906000526020600020905b81548152906001019060200180831161105f57829003601f168201915b50505050509050600061108d610ce1565b90508051600014156110a157509050610818565b8151156111625780826040516020018083805190602001908083835b602083106110dc5780518252601f1990920191602091820191016110bd565b51815160209384036101000a600019018019909216911617905285519190930192850191508083835b602083106111245780518252601f199092019160209182019101611105565b6001836020036101000a0380198251168184511680821785525050505050509050019250505060405160208183030381529060405292505050610818565b8061116c8561188b565b6040516020018083805190602001908083835b6020831061119e5780518252601f19909201916020918201910161117f565b51815160209384036101000a600019018019909216911617905285519190930192850191508083835b602083106111e65780518252601f1990920191602091820191016111c7565b6001836020036101000a0380198251168184511680821785525050505050509050019250505060405160208183030381529060405292505050919050565b6000818152600a60205260408120610b9f90611518565b7f9f2df0fed2c77648de5860a4cc508cd0818c85b8b8a1ab4ceeef8d981c8956a681565b6000828152600a602052604090206002015461127d90610a1c611308565b610bfc5760405162461bcd60e51b815260040180806020018281038252603081526020018061218b6030913960400191505060405180910390fd5b6001600160a01b03918216600090815260056020908152604080832093909416825291909152205460ff1690565b6000610b9c836001600160a01b038416611966565b6000610b9f6002836119b0565b3390565b600081815260046020526040902080546001600160a01b0319166001600160a01b038416908117909155819061134182610c37565b6001600160a01b03167f8c5be1e5ebec7d5bd14f71427d1e84f3dd0314c0f7b2291e5b200ac8c7c3b92560405160405180910390a45050565b5490565b6001600160a01b0382166113d9576040805162461bcd60e51b815260206004820181905260248201527f4552433732313a206d696e7420746f20746865207a65726f2061646472657373604482015290519081900360640190fd5b6113e2816112fb565b15611434576040805162461bcd60e51b815260206004820152601c60248201527f4552433732313a20746f6b656e20616c7265616479206d696e74656400000000604482015290519081900360640190fd5b611440600083836109eb565b6001600160a01b038216600090815260016020526040902061146290826119bc565b5061146f600282846119c8565b5060405181906001600160a01b038416906000907fddf252ad1be2c89b69c2b068fc378daa952ba7f163c4a11628f55a4df523b3ef908290a45050565b6114b5826112fb565b6114f05760405162461bcd60e51b815260040180806020018281038252602c815260200180612294602c913960400191505060405180910390fd5b600082815260086020908152604090912082516109eb92840190612016565b80546001019055565b6000610b9f8261137a565b600061152e826112fb565b6115695760405162461bcd60e51b815260040180806020018281038252602c81526020018061215f602c913960400191505060405180910390fd5b600061157483610c37565b9050806001600160a01b0316846001600160a01b031614806115af5750836001600160a01b03166115a4846108b3565b6001600160a01b0316145b806115bf57506115bf81856112b8565b949350505050565b826001600160a01b03166115da82610c37565b6001600160a01b03161461161f5760405162461bcd60e51b81526004018080602001828103825260298152602001806122c06029913960400191505060405180910390fd5b6001600160a01b0382166116645760405162461bcd60e51b815260040180806020018281038252602481526020018061213b6024913960400191505060405180910390fd5b61166f8383836109eb565b61167a60008261130c565b6001600160a01b038316600090815260016020526040902061169c90826119de565b506001600160a01b03821660009081526001602052604090206116bf90826119bc565b506116cc600282846119c8565b5080826001600160a01b0316846001600160a01b03167fddf252ad1be2c89b69c2b068fc378daa952ba7f163c4a11628f55a4df523b3ef60405160405180910390a4505050565b6000828152600a6020526040902061172b90826112e6565b15610a8c57611738611308565b6001600160a01b0316816001600160a01b0316837f2f8788117e7eff1d82e926ec794901d17c78024a50270940304540a733656f0d60405160405180910390a45050565b6000610b9c83836119ea565b6000828152600a602052604090206117a09082611a4e565b15610a8c576117ad611308565b6001600160a01b0316816001600160a01b0316837ff6391f5c32d9c69d2a47ea670b442974b53935d1edc7fd64eb21e047a839171b60405160405180910390a45050565b60008080806118008686611a63565b9097909650945050505050565b600061181a848484611ade565b90505b9392505050565b6000610b9c836001600160a01b038416611ba8565b6118448484846115c7565b61185084848484611bc0565b610f9d5760405162461bcd60e51b81526004018080602001828103825260328152602001806121096032913960400191505060405180910390fd5b6060816118b057506040805180820190915260018152600360fc1b6020820152610818565b8160005b81156118c857600101600a820491506118b4565b60008167ffffffffffffffff811180156118e157600080fd5b506040519080825280601f01601f19166020018201604052801561190c576020820181803683370190505b50859350905060001982015b831561195d57600a840660300160f81b8282806001900393508151811061193b57fe5b60200101906001600160f81b031916908160001a905350600a84049350611918565b50949350505050565b60006119728383611ba8565b6119a857508154600181810184556000848152602080822090930184905584548482528286019093526040902091909155610b9f565b506000610b9f565b6000610b9c8383611ba8565b6000610b9c8383611966565b600061181a84846001600160a01b038516611d28565b6000610b9c8383611dbf565b81546000908210611a2c5760405162461bcd60e51b81526004018080602001828103825260228152602001806120b86022913960400191505060405180910390fd5b826000018281548110611a3b57fe5b9060005260206000200154905092915050565b6000610b9c836001600160a01b038416611dbf565b815460009081908310611aa75760405162461bcd60e51b81526004018080602001828103825260228152602001806122466022913960400191505060405180910390fd5b6000846000018481548110611ab857fe5b906000526020600020906002020190508060000154816001015492509250509250929050565b60008281526001840160205260408120548281611b795760405162461bcd60e51b81526004018080602001828103825283818151815260200191508051906020019080838360005b83811015611b3e578181015183820152602001611b26565b50505050905090810190601f168015611b6b5780820380516001836020036101000a031916815260200191505b509250505060405180910390fd5b50846000016001820381548110611b8c57fe5b9060005260206000209060020201600101549150509392505050565b60009081526001919091016020526040902054151590565b6000611bd4846001600160a01b0316611e85565b611be0575060016115bf565b6000611cee630a85bd0160e11b611bf5611308565b88878760405160240180856001600160a01b03168152602001846001600160a01b0316815260200183815260200180602001828103825283818151815260200191508051906020019080838360005b83811015611c5c578181015183820152602001611c44565b50505050905090810190601f168015611c895780820380516001836020036101000a031916815260200191505b5095505050505050604051602081830303815290604052906001600160e01b0319166020820180516001600160e01b038381831617835250505050604051806060016040528060328152602001612109603291396001600160a01b0388169190611e8b565b90506000818060200190516020811015611d0757600080fd5b50516001600160e01b031916630a85bd0160e11b1492505050949350505050565b600082815260018401602052604081205480611d8d57505060408051808201825283815260208082018481528654600181810189556000898152848120955160029093029095019182559151908201558654868452818801909252929091205561181d565b82856000016001830381548110611da057fe5b906000526020600020906002020160010181905550600091505061181d565b60008181526001830160205260408120548015611e7b5783546000198083019190810190600090879083908110611df257fe5b9060005260206000200154905080876000018481548110611e0f57fe5b600091825260208083209091019290925582815260018981019092526040902090840190558654879080611e3f57fe5b60019003818190600052602060002001600090559055866001016000878152602001908152602001600020600090556001945050505050610b9f565b6000915050610b9f565b3b151590565b606061181a848460008585611e9f85611e85565b611ef0576040805162461bcd60e51b815260206004820152601d60248201527f416464726573733a2063616c6c20746f206e6f6e2d636f6e7472616374000000604482015290519081900360640190fd5b600080866001600160a01b031685876040518082805190602001908083835b60208310611f2e5780518252601f199092019160209182019101611f0f565b6001836020036101000a03801982511681845116808217855250505050505090500191505060006040518083038185875af1925050503d8060008114611f90576040519150601f19603f3d011682016040523d82523d6000602084013e611f95565b606091505b5091509150611fa5828286611fb0565b979650505050505050565b60608315611fbf57508161181d565b825115611fcf5782518084602001fd5b60405162461bcd60e51b8152602060048201818152845160248401528451859391928392604401919085019080838360008315611b3e578181015183820152602001611b26565b828054600181600116156101000203166002900490600052602060002090601f01602090048101928261204c5760008555612092565b82601f1061206557805160ff1916838001178555612092565b82800160010185558215612092579182015b82811115612092578251825591602001919060010190612077565b5061209e9291506120a2565b5090565b5b8082111561209e57600081556001016120a356fe456e756d657261626c655365743a20696e646578206f7574206f6620626f756e6473416363657373436f6e74726f6c3a2073656e646572206d75737420626520616e2061646d696e20746f206772616e744552433732313a207472616e7366657220746f206e6f6e20455243373231526563656976657220696d706c656d656e7465724552433732313a207472616e7366657220746f20746865207a65726f20616464726573734552433732313a206f70657261746f7220717565727920666f72206e6f6e6578697374656e7420746f6b656e416363657373436f6e74726f6c3a2073656e646572206d75737420626520616e2061646d696e20746f207265766f6b654552433732313a20617070726f76652063616c6c6572206973206e6f74206f776e6572206e6f7220617070726f76656420666f7220616c6c4552433732313a2062616c616e636520717565727920666f7220746865207a65726f20616464726573734552433732313a206f776e657220717565727920666f72206e6f6e6578697374656e7420746f6b656e456e756d657261626c654d61703a20696e646578206f7574206f6620626f756e64734552433732313a20617070726f76656420717565727920666f72206e6f6e6578697374656e7420746f6b656e4552433732314d657461646174613a2055524920736574206f66206e6f6e6578697374656e7420746f6b656e4552433732313a207472616e73666572206f6620746f6b656e2074686174206973206e6f74206f776e4552433732314d657461646174613a2055524920717565727920666f72206e6f6e6578697374656e7420746f6b656e4552433732313a20617070726f76616c20746f2063757272656e74206f776e65724552433732313a207472616e736665722063616c6c6572206973206e6f74206f776e6572206e6f7220617070726f7665644552433732313a206d7573742068617665206d696e74657220726f6c6520746f206d696e74416363657373436f6e74726f6c3a2063616e206f6e6c792072656e6f756e636520726f6c657320666f722073656c66a26469706673582212202b475933b010b9e7647484cdfef9678252570a55bbc712813ed3f28e48addc2064736f6c63430007060033",
  "immutableReferences": {},
  "source": "// SPDX-License-Identifier: MIT\npragma solidity >=0.6.0 <0.8.0;\n\nimport \"@openzeppelin/contracts/token/ERC721/ERC721.sol\";\nimport \"@openzeppelin/contracts/utils/Counters.sol\";\nimport \"@openzeppelin/contracts/access/AccessControl.sol\";\n\n\ncontract GakaToken is ERC721, AccessControl {\n    using Counters for Counters.Counter;\n\n    bytes32 public constant MINTER_ROLE = keccak256(\"MINTER_ROLE\");\n\n    Counters.Counter private _tokenIdTracker;\n\n    constructor(string memory _baseURI) public ERC721(\"GakaDrawings\", \"GCD\") {\n        _setupRole(DEFAULT_ADMIN_ROLE, _msgSender());\n        _setupRole(MINTER_ROLE, _msgSender());\n\n        _setBaseURI(_baseURI);\n    }\n\n    function mint(address to) public virtual {\n        require(hasRole(MINTER_ROLE, _msgSender()), \"ERC721: must have minter role to mint\");\n\n        // We cannot just use balanceOf to create the new tokenId because tokens\n        // can be burned (destroyed), so we need a separate counter.\n        _mint(to, _tokenIdTracker.current());\n        _tokenIdTracker.increment();\n    }\n\n    function mintWithURI(address to, string memory _tokenURI) public {\n        require(hasRole(MINTER_ROLE, _msgSender()), \"ERC721: must have minter role to mint\");\n\n       _mint(to, _tokenIdTracker.current());\n       _setTokenURI(_tokenIdTracker.current(), _tokenURI);\n       _tokenIdTracker.increment();\n    }\n\n\n\n    function setTokenURI(uint256 tokenId, string memory _tokenURI) public {\n        _setTokenURI(tokenId, _tokenURI);\n    }\n\n}\n\n",
  "sourcePath": "/home/vadim/Projects/erc721_v3.4/contracts/GakaToken.sol",
  "compiler": {
    "name": "solc",
    "version": "0.7.6+commit.7338295f.Emscripten.clang"
  },
  "schemaVersion": "3.3.4",
  "updatedAt": "2021-03-15T14:40:38.830Z",
  "networkType": "ethereum",
  "devdoc": {
    "kind": "dev",
    "methods": {
      "approve(address,uint256)": {
        "details": "See {IERC721-approve}."
      },
      "balanceOf(address)": {
        "details": "See {IERC721-balanceOf}."
      },
      "baseURI()": {
        "details": "Returns the base URI set via {_setBaseURI}. This will be automatically added as a prefix in {tokenURI} to each token's URI, or to the token ID if no specific URI is set for that token ID."
      },
      "getApproved(uint256)": {
        "details": "See {IERC721-getApproved}."
      },
      "getRoleAdmin(bytes32)": {
        "details": "Returns the admin role that controls `role`. See {grantRole} and {revokeRole}. To change a role's admin, use {_setRoleAdmin}."
      },
      "getRoleMember(bytes32,uint256)": {
        "details": "Returns one of the accounts that have `role`. `index` must be a value between 0 and {getRoleMemberCount}, non-inclusive. Role bearers are not sorted in any particular way, and their ordering may change at any point. WARNING: When using {getRoleMember} and {getRoleMemberCount}, make sure you perform all queries on the same block. See the following https://forum.openzeppelin.com/t/iterating-over-elements-on-enumerableset-in-openzeppelin-contracts/2296[forum post] for more information."
      },
      "getRoleMemberCount(bytes32)": {
        "details": "Returns the number of accounts that have `role`. Can be used together with {getRoleMember} to enumerate all bearers of a role."
      },
      "grantRole(bytes32,address)": {
        "details": "Grants `role` to `account`. If `account` had not been already granted `role`, emits a {RoleGranted} event. Requirements: - the caller must have ``role``'s admin role."
      },
      "hasRole(bytes32,address)": {
        "details": "Returns `true` if `account` has been granted `role`."
      },
      "isApprovedForAll(address,address)": {
        "details": "See {IERC721-isApprovedForAll}."
      },
      "name()": {
        "details": "See {IERC721Metadata-name}."
      },
      "ownerOf(uint256)": {
        "details": "See {IERC721-ownerOf}."
      },
      "renounceRole(bytes32,address)": {
        "details": "Revokes `role` from the calling account. Roles are often managed via {grantRole} and {revokeRole}: this function's purpose is to provide a mechanism for accounts to lose their privileges if they are compromised (such as when a trusted device is misplaced). If the calling account had been granted `role`, emits a {RoleRevoked} event. Requirements: - the caller must be `account`."
      },
      "revokeRole(bytes32,address)": {
        "details": "Revokes `role` from `account`. If `account` had been granted `role`, emits a {RoleRevoked} event. Requirements: - the caller must have ``role``'s admin role."
      },
      "safeTransferFrom(address,address,uint256)": {
        "details": "See {IERC721-safeTransferFrom}."
      },
      "safeTransferFrom(address,address,uint256,bytes)": {
        "details": "See {IERC721-safeTransferFrom}."
      },
      "setApprovalForAll(address,bool)": {
        "details": "See {IERC721-setApprovalForAll}."
      },
      "supportsInterface(bytes4)": {
        "details": "See {IERC165-supportsInterface}. Time complexity O(1), guaranteed to always use less than 30 000 gas."
      },
      "symbol()": {
        "details": "See {IERC721Metadata-symbol}."
      },
      "tokenByIndex(uint256)": {
        "details": "See {IERC721Enumerable-tokenByIndex}."
      },
      "tokenOfOwnerByIndex(address,uint256)": {
        "details": "See {IERC721Enumerable-tokenOfOwnerByIndex}."
      },
      "tokenURI(uint256)": {
        "details": "See {IERC721Metadata-tokenURI}."
      },
      "totalSupply()": {
        "details": "See {IERC721Enumerable-totalSupply}."
      },
      "transferFrom(address,address,uint256)": {
        "details": "See {IERC721-transferFrom}."
      }
    },
    "version": 1
  },
  "userdoc": {
    "kind": "user",
    "methods": {},
    "version": 1
  }
}